{
  "_format": "hh-sol-artifact-1",
  "contractName": "MasterChef",
  "sourceName": "contracts/MasterChef.sol",
  "abi": [
    {
      "inputs": [
        {
          "internalType": "contract IERC20",
          "name": "_hpt",
          "type": "address"
        },
        {
          "internalType": "uint256",
          "name": "_hptPerBlock",
          "type": "uint256"
        },
        {
          "internalType": "uint256",
          "name": "_startBlock",
          "type": "uint256"
        },
        {
          "internalType": "address",
          "name": "_mdxFactory",
          "type": "address"
        },
        {
          "internalType": "address",
          "name": "_WHT",
          "type": "address"
        },
        {
          "internalType": "contract IMdexChef",
          "name": "_mdxChef",
          "type": "address"
        },
        {
          "internalType": "uint256",
          "name": "_mdxProfitRate",
          "type": "uint256"
        },
        {
          "internalType": "contract IERC20",
          "name": "_mdx",
          "type": "address"
        },
        {
          "internalType": "address",
          "name": "_treasuryAddress",
          "type": "address"
        }
      ],
      "stateMutability": "nonpayable",
      "type": "constructor"
    },
    {
      "anonymous": false,
      "inputs": [
        {
          "indexed": true,
          "internalType": "address",
          "name": "user",
          "type": "address"
        },
        {
          "indexed": true,
          "internalType": "uint256",
          "name": "pid",
          "type": "uint256"
        },
        {
          "indexed": false,
          "internalType": "uint256",
          "name": "amount",
          "type": "uint256"
        }
      ],
      "name": "Deposit",
      "type": "event"
    },
    {
      "anonymous": false,
      "inputs": [
        {
          "indexed": true,
          "internalType": "address",
          "name": "user",
          "type": "address"
        },
        {
          "indexed": true,
          "internalType": "uint256",
          "name": "pid",
          "type": "uint256"
        },
        {
          "indexed": false,
          "internalType": "uint256",
          "name": "amount",
          "type": "uint256"
        }
      ],
      "name": "EmergencyWithdraw",
      "type": "event"
    },
    {
      "anonymous": false,
      "inputs": [
        {
          "indexed": true,
          "internalType": "address",
          "name": "previousOwner",
          "type": "address"
        },
        {
          "indexed": true,
          "internalType": "address",
          "name": "newOwner",
          "type": "address"
        }
      ],
      "name": "OwnershipTransferred",
      "type": "event"
    },
    {
      "anonymous": false,
      "inputs": [
        {
          "indexed": true,
          "internalType": "address",
          "name": "user",
          "type": "address"
        },
        {
          "indexed": true,
          "internalType": "uint256",
          "name": "pid",
          "type": "uint256"
        },
        {
          "indexed": false,
          "internalType": "uint256",
          "name": "amount",
          "type": "uint256"
        }
      ],
      "name": "Withdraw",
      "type": "event"
    },
    {
      "stateMutability": "nonpayable",
      "type": "fallback"
    },
    {
      "inputs": [],
      "name": "WHT",
      "outputs": [
        {
          "internalType": "address",
          "name": "",
          "type": "address"
        }
      ],
      "stateMutability": "view",
      "type": "function"
    },
    {
      "inputs": [
        {
          "internalType": "uint256",
          "name": "_allocPoint",
          "type": "uint256"
        },
        {
          "internalType": "contract IERC20",
          "name": "_lpToken",
          "type": "address"
        },
        {
          "internalType": "uint256",
          "name": "_mdxChefPid",
          "type": "uint256"
        },
        {
          "internalType": "bool",
          "name": "_withUpdate",
          "type": "bool"
        }
      ],
      "name": "add",
      "outputs": [],
      "stateMutability": "nonpayable",
      "type": "function"
    },
    {
      "inputs": [
        {
          "internalType": "uint256",
          "name": "_pid",
          "type": "uint256"
        },
        {
          "internalType": "address",
          "name": "token",
          "type": "address"
        },
        {
          "internalType": "uint256",
          "name": "amountTokenDesired",
          "type": "uint256"
        },
        {
          "internalType": "uint256",
          "name": "amountTokenMin",
          "type": "uint256"
        },
        {
          "internalType": "uint256",
          "name": "amountETHMin",
          "type": "uint256"
        }
      ],
      "name": "depositETH",
      "outputs": [],
      "stateMutability": "payable",
      "type": "function"
    },
    {
      "inputs": [
        {
          "internalType": "uint256",
          "name": "_pid",
          "type": "uint256"
        },
        {
          "internalType": "address",
          "name": "tokenA",
          "type": "address"
        },
        {
          "internalType": "address",
          "name": "tokenB",
          "type": "address"
        },
        {
          "internalType": "uint256",
          "name": "amountADesired",
          "type": "uint256"
        },
        {
          "internalType": "uint256",
          "name": "amountBDesired",
          "type": "uint256"
        },
        {
          "internalType": "uint256",
          "name": "amountAMin",
          "type": "uint256"
        },
        {
          "internalType": "uint256",
          "name": "amountBMin",
          "type": "uint256"
        }
      ],
      "name": "depositTokens",
      "outputs": [],
      "stateMutability": "nonpayable",
      "type": "function"
    },
    {
      "inputs": [
        {
          "internalType": "uint256",
          "name": "_pid",
          "type": "uint256"
        },
        {
          "internalType": "address",
          "name": "token",
          "type": "address"
        },
        {
          "internalType": "uint256",
          "name": "amountTokenMin",
          "type": "uint256"
        },
        {
          "internalType": "uint256",
          "name": "amountETHMin",
          "type": "uint256"
        }
      ],
      "name": "emergencyWithdrawETH",
      "outputs": [],
      "stateMutability": "nonpayable",
      "type": "function"
    },
    {
      "inputs": [
        {
          "internalType": "uint256",
          "name": "_pid",
          "type": "uint256"
        },
        {
          "internalType": "address",
          "name": "tokenA",
          "type": "address"
        },
        {
          "internalType": "address",
          "name": "tokenB",
          "type": "address"
        },
        {
          "internalType": "uint256",
          "name": "amountAMin",
          "type": "uint256"
        },
        {
          "internalType": "uint256",
          "name": "amountBMin",
          "type": "uint256"
        }
      ],
      "name": "emergencyWithdrawTokens",
      "outputs": [],
      "stateMutability": "nonpayable",
      "type": "function"
    },
    {
      "inputs": [],
      "name": "factory",
      "outputs": [
        {
          "internalType": "address",
          "name": "",
          "type": "address"
        }
      ],
      "stateMutability": "view",
      "type": "function"
    },
    {
      "inputs": [
        {
          "internalType": "uint256",
          "name": "_from",
          "type": "uint256"
        },
        {
          "internalType": "uint256",
          "name": "_to",
          "type": "uint256"
        }
      ],
      "name": "getMultiplier",
      "outputs": [
        {
          "internalType": "uint256",
          "name": "",
          "type": "uint256"
        }
      ],
      "stateMutability": "pure",
      "type": "function"
    },
    {
      "inputs": [],
      "name": "hpt",
      "outputs": [
        {
          "internalType": "contract IERC20",
          "name": "",
          "type": "address"
        }
      ],
      "stateMutability": "view",
      "type": "function"
    },
    {
      "inputs": [],
      "name": "hptPerBlock",
      "outputs": [
        {
          "internalType": "uint256",
          "name": "",
          "type": "uint256"
        }
      ],
      "stateMutability": "view",
      "type": "function"
    },
    {
      "inputs": [],
      "name": "hptRewardBalance",
      "outputs": [
        {
          "internalType": "uint256",
          "name": "",
          "type": "uint256"
        }
      ],
      "stateMutability": "view",
      "type": "function"
    },
    {
      "inputs": [
        {
          "internalType": "uint256",
          "name": "_pid",
          "type": "uint256"
        }
      ],
      "name": "hptRewardPerBlock",
      "outputs": [
        {
          "internalType": "uint256",
          "name": "",
          "type": "uint256"
        }
      ],
      "stateMutability": "view",
      "type": "function"
    },
    {
      "inputs": [],
      "name": "hptRewardTotal",
      "outputs": [
        {
          "internalType": "uint256",
          "name": "",
          "type": "uint256"
        }
      ],
      "stateMutability": "view",
      "type": "function"
    },
    {
      "inputs": [],
      "name": "massUpdatePools",
      "outputs": [],
      "stateMutability": "nonpayable",
      "type": "function"
    },
    {
      "inputs": [],
      "name": "mdx",
      "outputs": [
        {
          "internalType": "contract IERC20",
          "name": "",
          "type": "address"
        }
      ],
      "stateMutability": "view",
      "type": "function"
    },
    {
      "inputs": [],
      "name": "mdxChef",
      "outputs": [
        {
          "internalType": "contract IMdexChef",
          "name": "",
          "type": "address"
        }
      ],
      "stateMutability": "view",
      "type": "function"
    },
    {
      "inputs": [],
      "name": "mdxProfitRate",
      "outputs": [
        {
          "internalType": "uint256",
          "name": "",
          "type": "uint256"
        }
      ],
      "stateMutability": "view",
      "type": "function"
    },
    {
      "inputs": [],
      "name": "mdxRewardBalance",
      "outputs": [
        {
          "internalType": "uint256",
          "name": "",
          "type": "uint256"
        }
      ],
      "stateMutability": "view",
      "type": "function"
    },
    {
      "inputs": [
        {
          "internalType": "uint256",
          "name": "_pid",
          "type": "uint256"
        }
      ],
      "name": "mdxRewardPerBlock",
      "outputs": [
        {
          "internalType": "uint256",
          "name": "",
          "type": "uint256"
        }
      ],
      "stateMutability": "view",
      "type": "function"
    },
    {
      "inputs": [],
      "name": "mdxRewardTotal",
      "outputs": [
        {
          "internalType": "uint256",
          "name": "",
          "type": "uint256"
        }
      ],
      "stateMutability": "view",
      "type": "function"
    },
    {
      "inputs": [],
      "name": "owner",
      "outputs": [
        {
          "internalType": "address",
          "name": "",
          "type": "address"
        }
      ],
      "stateMutability": "view",
      "type": "function"
    },
    {
      "inputs": [
        {
          "internalType": "uint256",
          "name": "_pid",
          "type": "uint256"
        },
        {
          "internalType": "address",
          "name": "_user",
          "type": "address"
        }
      ],
      "name": "pendingHpt",
      "outputs": [
        {
          "internalType": "uint256",
          "name": "",
          "type": "uint256"
        }
      ],
      "stateMutability": "view",
      "type": "function"
    },
    {
      "inputs": [
        {
          "internalType": "uint256",
          "name": "_pid",
          "type": "uint256"
        },
        {
          "internalType": "address",
          "name": "_user",
          "type": "address"
        }
      ],
      "name": "pendingMdx",
      "outputs": [
        {
          "internalType": "uint256",
          "name": "",
          "type": "uint256"
        }
      ],
      "stateMutability": "view",
      "type": "function"
    },
    {
      "inputs": [
        {
          "internalType": "uint256",
          "name": "",
          "type": "uint256"
        }
      ],
      "name": "poolInfo",
      "outputs": [
        {
          "internalType": "contract IERC20",
          "name": "lpToken",
          "type": "address"
        },
        {
          "internalType": "uint256",
          "name": "allocPoint",
          "type": "uint256"
        },
        {
          "internalType": "uint256",
          "name": "lastRewardBlock",
          "type": "uint256"
        },
        {
          "internalType": "uint256",
          "name": "accHptPerShare",
          "type": "uint256"
        },
        {
          "internalType": "uint256",
          "name": "mdxChefPid",
          "type": "uint256"
        },
        {
          "internalType": "uint256",
          "name": "lpBalance",
          "type": "uint256"
        },
        {
          "internalType": "uint256",
          "name": "accMdxPerShare",
          "type": "uint256"
        }
      ],
      "stateMutability": "view",
      "type": "function"
    },
    {
      "inputs": [],
      "name": "poolLength",
      "outputs": [
        {
          "internalType": "uint256",
          "name": "",
          "type": "uint256"
        }
      ],
      "stateMutability": "view",
      "type": "function"
    },
    {
      "inputs": [],
      "name": "renounceOwnership",
      "outputs": [],
      "stateMutability": "nonpayable",
      "type": "function"
    },
    {
      "inputs": [],
      "name": "revoke",
      "outputs": [],
      "stateMutability": "nonpayable",
      "type": "function"
    },
    {
      "inputs": [
        {
          "internalType": "uint256",
          "name": "_pid",
          "type": "uint256"
        },
        {
          "internalType": "uint256",
          "name": "_allocPoint",
          "type": "uint256"
        },
        {
          "internalType": "uint256",
          "name": "_mdxChefPid",
          "type": "uint256"
        },
        {
          "internalType": "bool",
          "name": "_withUpdate",
          "type": "bool"
        }
      ],
      "name": "set",
      "outputs": [],
      "stateMutability": "nonpayable",
      "type": "function"
    },
    {
      "inputs": [
        {
          "internalType": "uint256",
          "name": "_hptPerBlock",
          "type": "uint256"
        }
      ],
      "name": "setHptPerBlock",
      "outputs": [],
      "stateMutability": "nonpayable",
      "type": "function"
    },
    {
      "inputs": [
        {
          "internalType": "uint256",
          "name": "_mdxProfitRate",
          "type": "uint256"
        }
      ],
      "name": "setMdxProfitRate",
      "outputs": [],
      "stateMutability": "nonpayable",
      "type": "function"
    },
    {
      "inputs": [
        {
          "internalType": "address",
          "name": "_treasuryAddress",
          "type": "address"
        }
      ],
      "name": "setTreasuryAddress",
      "outputs": [],
      "stateMutability": "nonpayable",
      "type": "function"
    },
    {
      "inputs": [],
      "name": "startBlock",
      "outputs": [
        {
          "internalType": "uint256",
          "name": "",
          "type": "uint256"
        }
      ],
      "stateMutability": "view",
      "type": "function"
    },
    {
      "inputs": [],
      "name": "totalAllocPoint",
      "outputs": [
        {
          "internalType": "uint256",
          "name": "",
          "type": "uint256"
        }
      ],
      "stateMutability": "view",
      "type": "function"
    },
    {
      "inputs": [
        {
          "internalType": "address",
          "name": "newOwner",
          "type": "address"
        }
      ],
      "name": "transferOwnership",
      "outputs": [],
      "stateMutability": "nonpayable",
      "type": "function"
    },
    {
      "inputs": [],
      "name": "treasuryAddress",
      "outputs": [
        {
          "internalType": "address",
          "name": "",
          "type": "address"
        }
      ],
      "stateMutability": "view",
      "type": "function"
    },
    {
      "inputs": [
        {
          "internalType": "uint256",
          "name": "_pid",
          "type": "uint256"
        }
      ],
      "name": "updatePool",
      "outputs": [],
      "stateMutability": "nonpayable",
      "type": "function"
    },
    {
      "inputs": [
        {
          "internalType": "uint256",
          "name": "",
          "type": "uint256"
        },
        {
          "internalType": "address",
          "name": "",
          "type": "address"
        }
      ],
      "name": "userInfo",
      "outputs": [
        {
          "internalType": "uint256",
          "name": "amount",
          "type": "uint256"
        },
        {
          "internalType": "uint256",
          "name": "rewardDebt",
          "type": "uint256"
        },
        {
          "internalType": "uint256",
          "name": "mdxRewardDebt",
          "type": "uint256"
        }
      ],
      "stateMutability": "view",
      "type": "function"
    },
    {
      "inputs": [
        {
          "internalType": "uint256",
          "name": "_pid",
          "type": "uint256"
        },
        {
          "internalType": "address",
          "name": "token",
          "type": "address"
        },
        {
          "internalType": "uint256",
          "name": "liquidity",
          "type": "uint256"
        },
        {
          "internalType": "uint256",
          "name": "amountTokenMin",
          "type": "uint256"
        },
        {
          "internalType": "uint256",
          "name": "amountETHMin",
          "type": "uint256"
        }
      ],
      "name": "withdrawETH",
      "outputs": [],
      "stateMutability": "nonpayable",
      "type": "function"
    },
    {
      "inputs": [
        {
          "internalType": "uint256",
          "name": "_pid",
          "type": "uint256"
        },
        {
          "internalType": "address",
          "name": "tokenA",
          "type": "address"
        },
        {
          "internalType": "address",
          "name": "tokenB",
          "type": "address"
        },
        {
          "internalType": "uint256",
          "name": "liquidity",
          "type": "uint256"
        },
        {
          "internalType": "uint256",
          "name": "amountAMin",
          "type": "uint256"
        },
        {
          "internalType": "uint256",
          "name": "amountBMin",
          "type": "uint256"
        }
      ],
      "name": "withdrawTokens",
      "outputs": [],
      "stateMutability": "nonpayable",
      "type": "function"
    },
    {
      "stateMutability": "payable",
      "type": "receive"
    }
  ],
  "bytecode": "0x60806040526000600555670de0b6b3a76400006010553480156200002257600080fd5b5060405162005dc338038062005dc3833981810160405281019062000048919062000306565b60006200005a620002a260201b60201c565b9050806000806101000a81548173ffffffffffffffffffffffffffffffffffffffff021916908373ffffffffffffffffffffffffffffffffffffffff1602179055508073ffffffffffffffffffffffffffffffffffffffff16600073ffffffffffffffffffffffffffffffffffffffff167f8be0079c531659141344cd1fd0a4f28419497f9722a3daafe3b4186f6b6457e060405160405180910390a35088600160006101000a81548173ffffffffffffffffffffffffffffffffffffffff021916908373ffffffffffffffffffffffffffffffffffffffff160217905550876002819055508660068190555085600b60006101000a81548173ffffffffffffffffffffffffffffffffffffffff021916908373ffffffffffffffffffffffffffffffffffffffff16021790555084600c60006101000a81548173ffffffffffffffffffffffffffffffffffffffff021916908373ffffffffffffffffffffffffffffffffffffffff16021790555083600d60006101000a81548173ffffffffffffffffffffffffffffffffffffffff021916908373ffffffffffffffffffffffffffffffffffffffff16021790555082600e8190555081600f60006101000a81548173ffffffffffffffffffffffffffffffffffffffff021916908373ffffffffffffffffffffffffffffffffffffffff16021790555080601160006101000a81548173ffffffffffffffffffffffffffffffffffffffff021916908373ffffffffffffffffffffffffffffffffffffffff160217905550505050505050505050620004ad565b600033905090565b600081519050620002bb8162000445565b92915050565b600081519050620002d2816200045f565b92915050565b600081519050620002e98162000479565b92915050565b600081519050620003008162000493565b92915050565b60008060008060008060008060006101208a8c0312156200032657600080fd5b6000620003368c828d01620002c1565b9950506020620003498c828d01620002ef565b98505060406200035c8c828d01620002ef565b97505060606200036f8c828d01620002aa565b9650506080620003828c828d01620002aa565b95505060a0620003958c828d01620002d8565b94505060c0620003a88c828d01620002ef565b93505060e0620003bb8c828d01620002c1565b925050610100620003cf8c828d01620002aa565b9150509295985092959850929598565b6000620003ec826200041b565b9050919050565b60006200040082620003df565b9050919050565b60006200041482620003df565b9050919050565b600073ffffffffffffffffffffffffffffffffffffffff82169050919050565b6000819050919050565b6200045081620003df565b81146200045c57600080fd5b50565b6200046a81620003f3565b81146200047657600080fd5b50565b620004848162000407565b81146200049057600080fd5b50565b6200049e816200043b565b8114620004aa57600080fd5b50565b61590680620004bd6000396000f3fe6080604052600436106102345760003560e01c8063715018a61161012e578063c45a0155116100ab578063d75577dc1161006f578063d75577dc14610829578063e674db1a14610852578063f2fde38b1461087b578063f8052799146108a4578063fedc1ec3146108cf5761023b565b8063c45a01551461074f578063c5f956af1461077a578063ca552e23146107a5578063cbb2e5d2146107e2578063d12051cf146107fe5761023b565b806393f1a40b116100f257806393f1a40b1461067c578063988d7a60146106bb578063ab66c045146106e4578063b6549f751461070f578063c11fef52146107265761023b565b8063715018a6146105ab578063782f443b146105c25780638862445a146105eb5780638da5cb5b146106145780638dbb1e3a1461063f5761023b565b80633ce0b4af116101bc57806359987d421161018057806359987d42146104d85780635cb4859214610515578063630b5ba1146105405780636605bfda1461055757806369dd803f146105805761023b565b80633ce0b4af146104055780633e4ae88d1461043057806348cd4cb11461045957806351eb05a6146104845780635672ab55146104ad5761023b565b80631526fe27116102035780631526fe271461030657806317caf6f1146103495780632abd5f2e14610374578063303af66a1461039d578063392e2e9e146103da5761023b565b8063081e3eda1461024a5780630b24a6e6146102755780630b6e442f146102b2578063151b11c9146102db5761023b565b3661023b57005b34801561024757600080fd5b50005b34801561025657600080fd5b5061025f6108fa565b60405161026c919061561a565b60405180910390f35b34801561028157600080fd5b5061029c60048036038101906102979190614a48565b610907565b6040516102a9919061561a565b60405180910390f35b3480156102be57600080fd5b506102d960048036038101906102d49190614b4d565b610bca565b005b3480156102e757600080fd5b506102f0610d52565b6040516102fd919061561a565b60405180910390f35b34801561031257600080fd5b5061032d60048036038101906103289190614a48565b610d58565b604051610340979695949392919061540e565b60405180910390f35b34801561035557600080fd5b5061035e610dc7565b60405161036b919061561a565b60405180910390f35b34801561038057600080fd5b5061039b60048036038101906103969190614a48565b610dcd565b005b3480156103a957600080fd5b506103c460048036038101906103bf9190614a9a565b610e74565b6040516103d1919061561a565b60405180910390f35b3480156103e657600080fd5b506103ef61105a565b6040516103fc919061547d565b60405180910390f35b34801561041157600080fd5b5061041a611080565b604051610427919061561a565b60405180910390f35b34801561043c57600080fd5b5061045760048036038101906104529190614c74565b611086565b005b34801561046557600080fd5b5061046e6113db565b60405161047b919061561a565b60405180910390f35b34801561049057600080fd5b506104ab60048036038101906104a69190614a48565b6113e1565b005b3480156104b957600080fd5b506104c26118c2565b6040516104cf91906153f3565b60405180910390f35b3480156104e457600080fd5b506104ff60048036038101906104fa9190614a48565b6118e8565b60405161050c919061561a565b60405180910390f35b34801561052157600080fd5b5061052a61193d565b604051610537919061530b565b60405180910390f35b34801561054c57600080fd5b50610555611963565b005b34801561056357600080fd5b5061057e60048036038101906105799190614968565b611990565b005b34801561058c57600080fd5b50610595611a69565b6040516105a2919061561a565b60405180910390f35b3480156105b757600080fd5b506105c0611a6f565b005b3480156105ce57600080fd5b506105e960048036038101906105e49190614a48565b611bc2565b005b3480156105f757600080fd5b50610612600480360381019061060d9190614e29565b611c69565b005b34801561062057600080fd5b50610629611da4565b604051610636919061530b565b60405180910390f35b34801561064b57600080fd5b5061066660048036038101906106619190614db1565b611dcd565b604051610673919061561a565b60405180910390f35b34801561068857600080fd5b506106a3600480360381019061069e9190614a9a565b611dea565b6040516106b2939291906156b0565b60405180910390f35b3480156106c757600080fd5b506106e260048036038101906106dd9190614d4e565b611e21565b005b3480156106f057600080fd5b506106f9611ffa565b604051610706919061561a565b60405180910390f35b34801561071b57600080fd5b50610724612000565b005b34801561073257600080fd5b5061074d60048036038101906107489190614cd7565b6121f1565b005b34801561075b57600080fd5b50610764612469565b604051610771919061530b565b60405180910390f35b34801561078657600080fd5b5061078f61248f565b60405161079c919061530b565b60405180910390f35b3480156107b157600080fd5b506107cc60048036038101906107c79190614a9a565b6124b5565b6040516107d9919061561a565b60405180910390f35b6107fc60048036038101906107f79190614cd7565b61263a565b005b34801561080a57600080fd5b506108136128bf565b60405161082091906153f3565b60405180910390f35b34801561083557600080fd5b50610850600480360381019061084b9190614bd6565b6128e5565b005b34801561085e57600080fd5b5061087960048036038101906108749190614ad6565b612b4c565b005b34801561088757600080fd5b506108a2600480360381019061089d9190614968565b612db1565b005b3480156108b057600080fd5b506108b9612f73565b6040516108c6919061561a565b60405180910390f35b3480156108db57600080fd5b506108e4612f79565b6040516108f1919061561a565b60405180910390f35b6000600380549050905090565b6000806003838154811061091757fe5b906000526020600020906007020190506000600d60009054906101000a900473ffffffffffffffffffffffffffffffffffffffff1673ffffffffffffffffffffffffffffffffffffffff166317caf6f16040518163ffffffff1660e01b815260040160206040518083038186803b15801561099157600080fd5b505afa1580156109a5573d6000803e3d6000fd5b505050506040513d601f19601f820116820180604052508101906109c99190614a71565b90506109d36147d8565b600d60009054906101000a900473ffffffffffffffffffffffffffffffffffffffff1673ffffffffffffffffffffffffffffffffffffffff16631526fe2784600401546040518263ffffffff1660e01b8152600401610a32919061561a565b60c06040518083038186803b158015610a4a57600080fd5b505afa158015610a5e573d6000803e3d6000fd5b505050506040513d601f19601f82011682018060405250810190610a829190614a1f565b90506000610b4e83610b408460200151600d60009054906101000a900473ffffffffffffffffffffffffffffffffffffffff1673ffffffffffffffffffffffffffffffffffffffff16638fa39a886040518163ffffffff1660e01b815260040160206040518083038186803b158015610afa57600080fd5b505afa158015610b0e573d6000803e3d6000fd5b505050506040513d601f19601f82011682018060405250810190610b329190614a71565b612f7f90919063ffffffff16565b612fef90919063ffffffff16565b9050610b7d8260a00151610b6f866005015484612f7f90919063ffffffff16565b612fef90919063ffffffff16565b9050610bbc601054610bae610b9f600e5460105461303990919063ffffffff16565b84612f7f90919063ffffffff16565b612fef90919063ffffffff16565b905080945050505050919050565b6000610bd68686613083565b9050600060038881548110610be757fe5b906000526020600020906007020190508060000160009054906101000a900473ffffffffffffffffffffffffffffffffffffffff1673ffffffffffffffffffffffffffffffffffffffff168273ffffffffffffffffffffffffffffffffffffffff1614610c89576040517f08c379a0000000000000000000000000000000000000000000000000000000008152600401610c80906155fa565b60405180910390fd5b610c92886113e1565b610c9c888661313a565b60008514610d4857600d60009054906101000a900473ffffffffffffffffffffffffffffffffffffffff1673ffffffffffffffffffffffffffffffffffffffff1663441a3e708260040154876040518363ffffffff1660e01b8152600401610d05929190615687565b600060405180830381600087803b158015610d1f57600080fd5b505af1158015610d33573d6000803e3d6000fd5b50505050610d458787878787336133a9565b50505b5050505050505050565b60085481565b60038181548110610d6557fe5b90600052602060002090600702016000915090508060000160009054906101000a900473ffffffffffffffffffffffffffffffffffffffff16908060010154908060020154908060030154908060040154908060050154908060060154905087565b60055481565b610dd5613664565b73ffffffffffffffffffffffffffffffffffffffff1660008054906101000a900473ffffffffffffffffffffffffffffffffffffffff1673ffffffffffffffffffffffffffffffffffffffff1614610e62576040517f08c379a0000000000000000000000000000000000000000000000000000000008152600401610e599061555a565b60405180910390fd5b610e6a611963565b80600e8190555050565b60008060038481548110610e8457fe5b9060005260206000209060070201905060006004600086815260200190815260200160002060008573ffffffffffffffffffffffffffffffffffffffff1673ffffffffffffffffffffffffffffffffffffffff1681526020019081526020016000209050600082600601549050600083600501549050836002015443118015610f0e575060008114155b1561100a576000600d60009054906101000a900473ffffffffffffffffffffffffffffffffffffffff1673ffffffffffffffffffffffffffffffffffffffff1663e4c75c278660040154306040518363ffffffff1660e01b8152600401610f76929190615635565b604080518083038186803b158015610f8d57600080fd5b505afa158015610fa1573d6000803e3d6000fd5b505050506040513d601f19601f82011682018060405250810190610fc59190614ded565b5080915050611006610ff783610fe964e8d4a5100085612f7f90919063ffffffff16565b612fef90919063ffffffff16565b8461366c90919063ffffffff16565b9250505b61104e836002015461104064e8d4a51000611032868860000154612f7f90919063ffffffff16565b612fef90919063ffffffff16565b61303990919063ffffffff16565b94505050505092915050565b600d60009054906101000a900473ffffffffffffffffffffffffffffffffffffffff1681565b600a5481565b60006003858154811061109557fe5b9060005260206000209060070201905060006004600087815260200190815260200160002060003373ffffffffffffffffffffffffffffffffffffffff1673ffffffffffffffffffffffffffffffffffffffff1681526020019081526020016000209050600061112786600c60009054906101000a900473ffffffffffffffffffffffffffffffffffffffff16613083565b90508260000160009054906101000a900473ffffffffffffffffffffffffffffffffffffffff1673ffffffffffffffffffffffffffffffffffffffff168173ffffffffffffffffffffffffffffffffffffffff16146111bb576040517f08c379a00000000000000000000000000000000000000000000000000000000081526004016111b2906155fa565b60405180910390fd5b6111c4876113e1565b600d60009054906101000a900473ffffffffffffffffffffffffffffffffffffffff1673ffffffffffffffffffffffffffffffffffffffff1663441a3e70846004015484600001546040518363ffffffff1660e01b8152600401611229929190615687565b600060405180830381600087803b15801561124357600080fd5b505af1158015611257573d6000803e3d6000fd5b5050505060008061129288600c60009054906101000a900473ffffffffffffffffffffffffffffffffffffffff1686600001548a8a306133a9565b80925081935050506112a58833846136c1565b600c60009054906101000a900473ffffffffffffffffffffffffffffffffffffffff1673ffffffffffffffffffffffffffffffffffffffff16632e1a7d4d826040518263ffffffff1660e01b8152600401611300919061561a565b600060405180830381600087803b15801561131a57600080fd5b505af115801561132e573d6000803e3d6000fd5b50505050883373ffffffffffffffffffffffffffffffffffffffff167fbb757047c2b5f3974fe26b7c10f732e7bce710b0952a71082702781e62ae0595866000015460405161137d919061561a565b60405180910390a36113a08460000154866005015461303990919063ffffffff16565b85600501819055506000846000018190555060008460010181905550600084600201819055506113d033826137f8565b505050505050505050565b60065481565b6000600382815481106113f057fe5b906000526020600020906007020190508060020154431161141157506118bf565b60008160050154905060008114156114335743826002018190555050506118bf565b6000611443836002015443611dcd565b90506000611486600554611478866001015461146a60025487612f7f90919063ffffffff16565b612f7f90919063ffffffff16565b612fef90919063ffffffff16565b905061149d8160075461366c90919063ffffffff16565b6007819055506114b88160095461366c90919063ffffffff16565b6009819055506114fe6114eb846114dd64e8d4a5100085612f7f90919063ffffffff16565b612fef90919063ffffffff16565b856003015461366c90919063ffffffff16565b84600301819055506000600f60009054906101000a900473ffffffffffffffffffffffffffffffffffffffff1673ffffffffffffffffffffffffffffffffffffffff166370a08231306040518263ffffffff1660e01b81526004016115639190615326565b60206040518083038186803b15801561157b57600080fd5b505afa15801561158f573d6000803e3d6000fd5b505050506040513d601f19601f820116820180604052508101906115b39190614a71565b9050600d60009054906101000a900473ffffffffffffffffffffffffffffffffffffffff1673ffffffffffffffffffffffffffffffffffffffff1663441a3e70866004015460006040518363ffffffff1660e01b815260040161161792919061565e565b600060405180830381600087803b15801561163157600080fd5b505af1158015611645573d6000803e3d6000fd5b505050506000600f60009054906101000a900473ffffffffffffffffffffffffffffffffffffffff1673ffffffffffffffffffffffffffffffffffffffff166370a08231306040518263ffffffff1660e01b81526004016116a69190615326565b60206040518083038186803b1580156116be57600080fd5b505afa1580156116d2573d6000803e3d6000fd5b505050506040513d601f19601f820116820180604052508101906116f69190614a71565b9050818111156118af576000611715838361303990919063ffffffff16565b90506000611742601054611734600e5485612f7f90919063ffffffff16565b612fef90919063ffffffff16565b9050600f60009054906101000a900473ffffffffffffffffffffffffffffffffffffffff1673ffffffffffffffffffffffffffffffffffffffff1663a9059cbb601160009054906101000a900473ffffffffffffffffffffffffffffffffffffffff16836040518363ffffffff1660e01b81526004016117c39291906153ca565b602060405180830381600087803b1580156117dd57600080fd5b505af11580156117f1573d6000803e3d6000fd5b505050506040513d601f19601f8201168201806040525081019061181591906149f6565b50600061182b828461303990919063ffffffff16565b90506118428160085461366c90919063ffffffff16565b60088190555061185d81600a5461366c90919063ffffffff16565b600a819055506118a36118908961188264e8d4a5100085612f7f90919063ffffffff16565b612fef90919063ffffffff16565b8a6006015461366c90919063ffffffff16565b89600601819055505050505b4386600201819055505050505050505b50565b600f60009054906101000a900473ffffffffffffffffffffffffffffffffffffffff1681565b600080600383815481106118f857fe5b906000526020600020906007020190506119356005546119278360010154600254612f7f90919063ffffffff16565b612fef90919063ffffffff16565b915050919050565b600c60009054906101000a900473ffffffffffffffffffffffffffffffffffffffff1681565b6000600380549050905060005b8181101561198c57611981816113e1565b806001019050611970565b5050565b611998613664565b73ffffffffffffffffffffffffffffffffffffffff1660008054906101000a900473ffffffffffffffffffffffffffffffffffffffff1673ffffffffffffffffffffffffffffffffffffffff1614611a25576040517f08c379a0000000000000000000000000000000000000000000000000000000008152600401611a1c9061555a565b60405180910390fd5b80601160006101000a81548173ffffffffffffffffffffffffffffffffffffffff021916908373ffffffffffffffffffffffffffffffffffffffff16021790555050565b60025481565b611a77613664565b73ffffffffffffffffffffffffffffffffffffffff1660008054906101000a900473ffffffffffffffffffffffffffffffffffffffff1673ffffffffffffffffffffffffffffffffffffffff1614611b04576040517f08c379a0000000000000000000000000000000000000000000000000000000008152600401611afb9061555a565b60405180910390fd5b600073ffffffffffffffffffffffffffffffffffffffff1660008054906101000a900473ffffffffffffffffffffffffffffffffffffffff1673ffffffffffffffffffffffffffffffffffffffff167f8be0079c531659141344cd1fd0a4f28419497f9722a3daafe3b4186f6b6457e060405160405180910390a360008060006101000a81548173ffffffffffffffffffffffffffffffffffffffff021916908373ffffffffffffffffffffffffffffffffffffffff160217905550565b611bca613664565b73ffffffffffffffffffffffffffffffffffffffff1660008054906101000a900473ffffffffffffffffffffffffffffffffffffffff1673ffffffffffffffffffffffffffffffffffffffff1614611c57576040517f08c379a0000000000000000000000000000000000000000000000000000000008152600401611c4e9061555a565b60405180910390fd5b611c5f611963565b8060028190555050565b611c71613664565b73ffffffffffffffffffffffffffffffffffffffff1660008054906101000a900473ffffffffffffffffffffffffffffffffffffffff1673ffffffffffffffffffffffffffffffffffffffff1614611cfe576040517f08c379a0000000000000000000000000000000000000000000000000000000008152600401611cf59061555a565b60405180910390fd5b8015611d0d57611d0c611963565b5b611d5283611d4460038781548110611d2157fe5b90600052602060002090600702016001015460055461303990919063ffffffff16565b61366c90919063ffffffff16565b6005819055508260038581548110611d6657fe5b9060005260206000209060070201600101819055508160038581548110611d8957fe5b90600052602060002090600702016004018190555050505050565b60008060009054906101000a900473ffffffffffffffffffffffffffffffffffffffff16905090565b6000611de2838361303990919063ffffffff16565b905092915050565b6004602052816000526040600020602052806000526040600020600091509150508060000154908060010154908060020154905083565b611e29613664565b73ffffffffffffffffffffffffffffffffffffffff1660008054906101000a900473ffffffffffffffffffffffffffffffffffffffff1673ffffffffffffffffffffffffffffffffffffffff1614611eb6576040517f08c379a0000000000000000000000000000000000000000000000000000000008152600401611ead9061555a565b60405180910390fd5b8015611ec557611ec4611963565b5b60006006544311611ed857600654611eda565b435b9050611ef18560055461366c90919063ffffffff16565b60058190555060036040518060e001604052808673ffffffffffffffffffffffffffffffffffffffff16815260200187815260200183815260200160008152602001858152602001600081526020016000815250908060018154018082558091505060019003906000526020600020906007020160009091909190915060008201518160000160006101000a81548173ffffffffffffffffffffffffffffffffffffffff021916908373ffffffffffffffffffffffffffffffffffffffff1602179055506020820151816001015560408201518160020155606082015181600301556080820151816004015560a0820151816005015560c0820151816006015550505050505050565b60095481565b612008613664565b73ffffffffffffffffffffffffffffffffffffffff1660008054906101000a900473ffffffffffffffffffffffffffffffffffffffff1673ffffffffffffffffffffffffffffffffffffffff1614612095576040517f08c379a000000000000000000000000000000000000000000000000000000000815260040161208c9061555a565b60405180910390fd5b600160009054906101000a900473ffffffffffffffffffffffffffffffffffffffff1673ffffffffffffffffffffffffffffffffffffffff1663a9059cbb33600160009054906101000a900473ffffffffffffffffffffffffffffffffffffffff1673ffffffffffffffffffffffffffffffffffffffff166370a08231306040518263ffffffff1660e01b815260040161212f9190615326565b60206040518083038186803b15801561214757600080fd5b505afa15801561215b573d6000803e3d6000fd5b505050506040513d601f19601f8201168201806040525081019061217f9190614a71565b6040518363ffffffff1660e01b815260040161219c929190615341565b602060405180830381600087803b1580156121b657600080fd5b505af11580156121ca573d6000803e3d6000fd5b505050506040513d601f19601f820116820180604052508101906121ee91906149f6565b50565b600061221f85600c60009054906101000a900473ffffffffffffffffffffffffffffffffffffffff16613083565b905060006003878154811061223057fe5b906000526020600020906007020190508060000160009054906101000a900473ffffffffffffffffffffffffffffffffffffffff1673ffffffffffffffffffffffffffffffffffffffff168273ffffffffffffffffffffffffffffffffffffffff16146122d2576040517f08c379a00000000000000000000000000000000000000000000000000000000081526004016122c9906155fa565b60405180910390fd5b6122db876113e1565b6122e5878661313a565b6000851461246057600d60009054906101000a900473ffffffffffffffffffffffffffffffffffffffff1673ffffffffffffffffffffffffffffffffffffffff1663441a3e708260040154876040518363ffffffff1660e01b815260040161234e929190615687565b600060405180830381600087803b15801561236857600080fd5b505af115801561237c573d6000803e3d6000fd5b505050506000806123b388600c60009054906101000a900473ffffffffffffffffffffffffffffffffffffffff16898989306133a9565b80925081935050506123c68833846136c1565b600c60009054906101000a900473ffffffffffffffffffffffffffffffffffffffff1673ffffffffffffffffffffffffffffffffffffffff16632e1a7d4d826040518263ffffffff1660e01b8152600401612421919061561a565b600060405180830381600087803b15801561243b57600080fd5b505af115801561244f573d6000803e3d6000fd5b5050505061245d33826137f8565b50505b50505050505050565b600b60009054906101000a900473ffffffffffffffffffffffffffffffffffffffff1681565b601160009054906101000a900473ffffffffffffffffffffffffffffffffffffffff1681565b600080600384815481106124c557fe5b9060005260206000209060070201905060006004600086815260200190815260200160002060008573ffffffffffffffffffffffffffffffffffffffff1673ffffffffffffffffffffffffffffffffffffffff168152602001908152602001600020905060008260030154905060008360050154905083600201544311801561254f575060008114155b156125ea576000612564856002015443611dcd565b905060006125a7600554612599886001015461258b60025487612f7f90919063ffffffff16565b612f7f90919063ffffffff16565b612fef90919063ffffffff16565b90506125e56125d6846125c864e8d4a5100085612f7f90919063ffffffff16565b612fef90919063ffffffff16565b8561366c90919063ffffffff16565b935050505b61262e836001015461262064e8d4a51000612612868860000154612f7f90919063ffffffff16565b612fef90919063ffffffff16565b61303990919063ffffffff16565b94505050505092915050565b60008061266986600c60009054906101000a900473ffffffffffffffffffffffffffffffffffffffff16613083565b905060006003888154811061267a57fe5b906000526020600020906007020190508060000160009054906101000a900473ffffffffffffffffffffffffffffffffffffffff1673ffffffffffffffffffffffffffffffffffffffff168273ffffffffffffffffffffffffffffffffffffffff161461271c576040517f08c379a0000000000000000000000000000000000000000000000000000000008152600401612713906155fa565b60405180910390fd5b612725886113e1565b600086146128ab5761273a87878787306138f6565b9091509050809350508060000160009054906101000a900473ffffffffffffffffffffffffffffffffffffffff1673ffffffffffffffffffffffffffffffffffffffff1663095ea7b3600d60009054906101000a900473ffffffffffffffffffffffffffffffffffffffff16856040518363ffffffff1660e01b81526004016127c49291906153ca565b602060405180830381600087803b1580156127de57600080fd5b505af11580156127f2573d6000803e3d6000fd5b505050506040513d601f19601f8201168201806040525081019061281691906149f6565b50600d60009054906101000a900473ffffffffffffffffffffffffffffffffffffffff1673ffffffffffffffffffffffffffffffffffffffff1663e2bbb1588260040154856040518363ffffffff1660e01b8152600401612878929190615687565b600060405180830381600087803b15801561289257600080fd5b505af11580156128a6573d6000803e3d6000fd5b505050505b6128b58884613b55565b5050505050505050565b600160009054906101000a900473ffffffffffffffffffffffffffffffffffffffff1681565b6000806128f28888613083565b9050600060038a8154811061290357fe5b906000526020600020906007020190508060000160009054906101000a900473ffffffffffffffffffffffffffffffffffffffff1673ffffffffffffffffffffffffffffffffffffffff168273ffffffffffffffffffffffffffffffffffffffff16146129a5576040517f08c379a000000000000000000000000000000000000000000000000000000000815260040161299c906155fa565b60405180910390fd5b6129ae8a6113e1565b60008714612b36576129c589898989898930613d8b565b9091509050809350508060000160009054906101000a900473ffffffffffffffffffffffffffffffffffffffff1673ffffffffffffffffffffffffffffffffffffffff1663095ea7b3600d60009054906101000a900473ffffffffffffffffffffffffffffffffffffffff16856040518363ffffffff1660e01b8152600401612a4f9291906153ca565b602060405180830381600087803b158015612a6957600080fd5b505af1158015612a7d573d6000803e3d6000fd5b505050506040513d601f19601f82011682018060405250810190612aa191906149f6565b50600d60009054906101000a900473ffffffffffffffffffffffffffffffffffffffff1673ffffffffffffffffffffffffffffffffffffffff1663e2bbb1588260040154856040518363ffffffff1660e01b8152600401612b03929190615687565b600060405180830381600087803b158015612b1d57600080fd5b505af1158015612b31573d6000803e3d6000fd5b505050505b612b408a84613b55565b50505050505050505050565b600060038681548110612b5b57fe5b9060005260206000209060070201905060006004600088815260200190815260200160002060003373ffffffffffffffffffffffffffffffffffffffff1673ffffffffffffffffffffffffffffffffffffffff16815260200190815260200160002090506000612bcb8787613083565b90508260000160009054906101000a900473ffffffffffffffffffffffffffffffffffffffff1673ffffffffffffffffffffffffffffffffffffffff168173ffffffffffffffffffffffffffffffffffffffff1614612c5f576040517f08c379a0000000000000000000000000000000000000000000000000000000008152600401612c56906155fa565b60405180910390fd5b612c68886113e1565b600d60009054906101000a900473ffffffffffffffffffffffffffffffffffffffff1673ffffffffffffffffffffffffffffffffffffffff1663441a3e70846004015484600001546040518363ffffffff1660e01b8152600401612ccd929190615687565b600060405180830381600087803b158015612ce757600080fd5b505af1158015612cfb573d6000803e3d6000fd5b50505050612d11878784600001548888336133a9565b5050873373ffffffffffffffffffffffffffffffffffffffff167fbb757047c2b5f3974fe26b7c10f732e7bce710b0952a71082702781e62ae05958460000154604051612d5e919061561a565b60405180910390a3612d818260000154846005015461303990919063ffffffff16565b83600501819055506000826000018190555060008260010181905550600082600201819055505050505050505050565b612db9613664565b73ffffffffffffffffffffffffffffffffffffffff1660008054906101000a900473ffffffffffffffffffffffffffffffffffffffff1673ffffffffffffffffffffffffffffffffffffffff1614612e46576040517f08c379a0000000000000000000000000000000000000000000000000000000008152600401612e3d9061555a565b60405180910390fd5b600073ffffffffffffffffffffffffffffffffffffffff168173ffffffffffffffffffffffffffffffffffffffff161415612eb6576040517f08c379a0000000000000000000000000000000000000000000000000000000008152600401612ead906154da565b60405180910390fd5b8073ffffffffffffffffffffffffffffffffffffffff1660008054906101000a900473ffffffffffffffffffffffffffffffffffffffff1673ffffffffffffffffffffffffffffffffffffffff167f8be0079c531659141344cd1fd0a4f28419497f9722a3daafe3b4186f6b6457e060405160405180910390a3806000806101000a81548173ffffffffffffffffffffffffffffffffffffffff021916908373ffffffffffffffffffffffffffffffffffffffff16021790555050565b60075481565b600e5481565b600080831415612f925760009050612fe9565b6000828402905082848281612fa357fe5b0414612fe4576040517f08c379a0000000000000000000000000000000000000000000000000000000008152600401612fdb9061553a565b60405180910390fd5b809150505b92915050565b600061303183836040518060400160405280601a81526020017f536166654d6174683a206469766973696f6e206279207a65726f000000000000815250613e67565b905092915050565b600061307b83836040518060400160405280601e81526020017f536166654d6174683a207375627472616374696f6e206f766572666c6f770000815250613ec8565b905092915050565b6000600b60009054906101000a900473ffffffffffffffffffffffffffffffffffffffff1673ffffffffffffffffffffffffffffffffffffffff166396ed28f984846040518363ffffffff1660e01b81526004016130e292919061536a565b60206040518083038186803b1580156130fa57600080fd5b505afa15801561310e573d6000803e3d6000fd5b505050506040513d601f19601f820116820180604052508101906131329190614991565b905092915050565b60006003838154811061314957fe5b9060005260206000209060070201905060006004600085815260200190815260200160002060003373ffffffffffffffffffffffffffffffffffffffff1673ffffffffffffffffffffffffffffffffffffffff168152602001908152602001600020905082816000015410156131f4576040517f08c379a00000000000000000000000000000000000000000000000000000000081526004016131eb9061559a565b60405180910390fd5b600061323e826001015461323064e8d4a5100061322287600301548760000154612f7f90919063ffffffff16565b612fef90919063ffffffff16565b61303990919063ffffffff16565b905061324a3382613f23565b6000613294836002015461328664e8d4a5100061327888600601548860000154612f7f90919063ffffffff16565b612fef90919063ffffffff16565b61303990919063ffffffff16565b90506132a03382614160565b6132b785856005015461303990919063ffffffff16565b84600501819055506132d685846000015461303990919063ffffffff16565b836000018190555061331064e8d4a5100061330286600301548660000154612f7f90919063ffffffff16565b612fef90919063ffffffff16565b836001018190555061334a64e8d4a5100061333c86600601548660000154612f7f90919063ffffffff16565b612fef90919063ffffffff16565b8360020181905550853373ffffffffffffffffffffffffffffffffffffffff167ff279e6a1f5e320cca91135676d9cb6e44ca8a08c0b88342bcdb1144f6511b56887604051613399919061561a565b60405180910390a3505050505050565b60008060006133b88989613083565b90508073ffffffffffffffffffffffffffffffffffffffff1663a9059cbb82896040518363ffffffff1660e01b81526004016133f59291906153ca565b602060405180830381600087803b15801561340f57600080fd5b505af1158015613423573d6000803e3d6000fd5b505050506040513d601f19601f8201168201806040525081019061344791906149f6565b506000808273ffffffffffffffffffffffffffffffffffffffff166389afcb44876040518263ffffffff1660e01b8152600401613484919061530b565b6040805180830381600087803b15801561349d57600080fd5b505af11580156134b1573d6000803e3d6000fd5b505050506040513d601f19601f820116820180604052508101906134d59190614ded565b915091506000600b60009054906101000a900473ffffffffffffffffffffffffffffffffffffffff1673ffffffffffffffffffffffffffffffffffffffff1663544caa568d8d6040518363ffffffff1660e01b815260040161353892919061536a565b604080518083038186803b15801561354f57600080fd5b505afa158015613563573d6000803e3d6000fd5b505050506040513d601f19601f8201168201806040525081019061358791906149ba565b5090508073ffffffffffffffffffffffffffffffffffffffff168c73ffffffffffffffffffffffffffffffffffffffff16146135c45781836135c7565b82825b809650819750505088861015613612576040517f08c379a00000000000000000000000000000000000000000000000000000000081526004016136099061557a565b60405180910390fd5b87851015613655576040517f08c379a000000000000000000000000000000000000000000000000000000000815260040161364c9061551a565b60405180910390fd5b50505050965096945050505050565b600033905090565b6000808284019050838110156136b7576040517f08c379a00000000000000000000000000000000000000000000000000000000081526004016136ae906154fa565b60405180910390fd5b8091505092915050565b600060608473ffffffffffffffffffffffffffffffffffffffff1663a9059cbb85856040516024016136f49291906153ca565b6040516020818303038152906040529060e01b6020820180517bffffffffffffffffffffffffffffffffffffffffffffffffffffffff838183161783525050505060405161374291906152f4565b6000604051808303816000865af19150503d806000811461377f576040519150601f19603f3d011682016040523d82523d6000602084013e613784565b606091505b50915091508180156137b257506000815114806137b15750808060200190518101906137b091906149f6565b5b5b6137f1576040517f08c379a00000000000000000000000000000000000000000000000000000000081526004016137e8906154ba565b60405180910390fd5b5050505050565b60008273ffffffffffffffffffffffffffffffffffffffff1682600067ffffffffffffffff8111801561382a57600080fd5b506040519080825280601f01601f19166020018201604052801561385d5781602001600182028036833780820191505090505b5060405161386b91906152f4565b60006040518083038185875af1925050503d80600081146138a8576040519150601f19603f3d011682016040523d82523d6000602084013e6138ad565b606091505b50509050806138f1576040517f08c379a00000000000000000000000000000000000000000000000000000000081526004016138e8906155ba565b60405180910390fd5b505050565b600080600061392b88600c60009054906101000a900473ffffffffffffffffffffffffffffffffffffffff1689348a8a61439d565b8093508194505050600061396189600c60009054906101000a900473ffffffffffffffffffffffffffffffffffffffff16613083565b905061396f8933838761469e565b600c60009054906101000a900473ffffffffffffffffffffffffffffffffffffffff1673ffffffffffffffffffffffffffffffffffffffff1663d0e30db0846040518263ffffffff1660e01b81526004016000604051808303818588803b1580156139d957600080fd5b505af11580156139ed573d6000803e3d6000fd5b5050505050600c60009054906101000a900473ffffffffffffffffffffffffffffffffffffffff1673ffffffffffffffffffffffffffffffffffffffff1663a9059cbb82856040518363ffffffff1660e01b8152600401613a4f9291906153ca565b602060405180830381600087803b158015613a6957600080fd5b505af1158015613a7d573d6000803e3d6000fd5b505050506040513d601f19601f82011682018060405250810190613aa191906149f6565b613aa757fe5b8073ffffffffffffffffffffffffffffffffffffffff16636a627842866040518263ffffffff1660e01b8152600401613ae0919061530b565b602060405180830381600087803b158015613afa57600080fd5b505af1158015613b0e573d6000803e3d6000fd5b505050506040513d601f19601f82011682018060405250810190613b329190614a71565b915082341115613b4957613b48338434036137f8565b5b50955095509592505050565b600060038381548110613b6457fe5b9060005260206000209060070201905060006004600085815260200190815260200160002060003373ffffffffffffffffffffffffffffffffffffffff1673ffffffffffffffffffffffffffffffffffffffff1681526020019081526020016000209050600081600001541115613c84576000613c1f8260010154613c1164e8d4a51000613c0387600301548760000154612f7f90919063ffffffff16565b612fef90919063ffffffff16565b61303990919063ffffffff16565b9050613c2b3382613f23565b6000613c758360020154613c6764e8d4a51000613c5988600601548860000154612f7f90919063ffffffff16565b612fef90919063ffffffff16565b61303990919063ffffffff16565b9050613c813382614160565b50505b613c9b83836005015461366c90919063ffffffff16565b8260050181905550613cba83826000015461366c90919063ffffffff16565b8160000181905550613cf464e8d4a51000613ce684600301548460000154612f7f90919063ffffffff16565b612fef90919063ffffffff16565b8160010181905550613d2e64e8d4a51000613d2084600601548460000154612f7f90919063ffffffff16565b612fef90919063ffffffff16565b8160020181905550833373ffffffffffffffffffffffffffffffffffffffff167f90890809c654f11d6e72a28fa60149770a0d11ec6c92319d6ceb2bb0a4ea1a1585604051613d7d919061561a565b60405180910390a350505050565b6000806000613d9e8a8a8a8a8a8a61439d565b80935081945050506000613db28b8b613083565b9050613dc08b33838761469e565b613dcc8a33838661469e565b8073ffffffffffffffffffffffffffffffffffffffff16636a627842866040518263ffffffff1660e01b8152600401613e05919061530b565b602060405180830381600087803b158015613e1f57600080fd5b505af1158015613e33573d6000803e3d6000fd5b505050506040513d601f19601f82011682018060405250810190613e579190614a71565b9150509750975097945050505050565b60008083118290613eae576040517f08c379a0000000000000000000000000000000000000000000000000000000008152600401613ea59190615498565b60405180910390fd5b506000838581613eba57fe5b049050809150509392505050565b6000838311158290613f10576040517f08c379a0000000000000000000000000000000000000000000000000000000008152600401613f079190615498565b60405180910390fd5b5060008385039050809150509392505050565b613f388160075461303990919063ffffffff16565b6007819055506000600160009054906101000a900473ffffffffffffffffffffffffffffffffffffffff1673ffffffffffffffffffffffffffffffffffffffff166370a08231306040518263ffffffff1660e01b8152600401613f9b9190615326565b60206040518083038186803b158015613fb357600080fd5b505afa158015613fc7573d6000803e3d6000fd5b505050506040513d601f19601f82011682018060405250810190613feb9190614a71565b9050808211156140aa57600160009054906101000a900473ffffffffffffffffffffffffffffffffffffffff1673ffffffffffffffffffffffffffffffffffffffff1663a9059cbb84836040518363ffffffff1660e01b81526004016140529291906153ca565b602060405180830381600087803b15801561406c57600080fd5b505af1158015614080573d6000803e3d6000fd5b505050506040513d601f19601f820116820180604052508101906140a491906149f6565b5061415b565b600160009054906101000a900473ffffffffffffffffffffffffffffffffffffffff1673ffffffffffffffffffffffffffffffffffffffff1663a9059cbb84846040518363ffffffff1660e01b81526004016141079291906153ca565b602060405180830381600087803b15801561412157600080fd5b505af1158015614135573d6000803e3d6000fd5b505050506040513d601f19601f8201168201806040525081019061415991906149f6565b505b505050565b6141758160085461303990919063ffffffff16565b6008819055506000600f60009054906101000a900473ffffffffffffffffffffffffffffffffffffffff1673ffffffffffffffffffffffffffffffffffffffff166370a08231306040518263ffffffff1660e01b81526004016141d89190615326565b60206040518083038186803b1580156141f057600080fd5b505afa158015614204573d6000803e3d6000fd5b505050506040513d601f19601f820116820180604052508101906142289190614a71565b9050808211156142e757600f60009054906101000a900473ffffffffffffffffffffffffffffffffffffffff1673ffffffffffffffffffffffffffffffffffffffff1663a9059cbb84836040518363ffffffff1660e01b815260040161428f9291906153ca565b602060405180830381600087803b1580156142a957600080fd5b505af11580156142bd573d6000803e3d6000fd5b505050506040513d601f19601f820116820180604052508101906142e191906149f6565b50614398565b600f60009054906101000a900473ffffffffffffffffffffffffffffffffffffffff1673ffffffffffffffffffffffffffffffffffffffff1663a9059cbb84846040518363ffffffff1660e01b81526004016143449291906153ca565b602060405180830381600087803b15801561435e57600080fd5b505af1158015614372573d6000803e3d6000fd5b505050506040513d601f19601f8201168201806040525081019061439691906149f6565b505b505050565b600080600080600b60009054906101000a900473ffffffffffffffffffffffffffffffffffffffff1673ffffffffffffffffffffffffffffffffffffffff1663d52bb6f48b8b6040518363ffffffff1660e01b815260040161440092919061536a565b604080518083038186803b15801561441757600080fd5b505afa15801561442b573d6000803e3d6000fd5b505050506040513d601f19601f8201168201806040525081019061444f9190614ded565b915091506000821480156144635750600081145b156144775787878094508195505050614691565b6000600b60009054906101000a900473ffffffffffffffffffffffffffffffffffffffff1673ffffffffffffffffffffffffffffffffffffffff1663ad615dec8a85856040518463ffffffff1660e01b81526004016144d8939291906156b0565b60206040518083038186803b1580156144f057600080fd5b505afa158015614504573d6000803e3d6000fd5b505050506040513d601f19601f820116820180604052508101906145289190614a71565b90508781116145835785811015614574576040517f08c379a000000000000000000000000000000000000000000000000000000000815260040161456b9061551a565b60405180910390fd5b8881809550819650505061468f565b6000600b60009054906101000a900473ffffffffffffffffffffffffffffffffffffffff1673ffffffffffffffffffffffffffffffffffffffff1663ad615dec8a85876040518463ffffffff1660e01b81526004016145e4939291906156b0565b60206040518083038186803b1580156145fc57600080fd5b505afa158015614610573d6000803e3d6000fd5b505050506040513d601f19601f820116820180604052508101906146349190614a71565b90508981111561464057fe5b87811015614683576040517f08c379a000000000000000000000000000000000000000000000000000000000815260040161467a9061557a565b60405180910390fd5b80898096508197505050505b505b5050965096945050505050565b600060608573ffffffffffffffffffffffffffffffffffffffff166323b872dd8686866040516024016146d393929190615393565b6040516020818303038152906040529060e01b6020820180517bffffffffffffffffffffffffffffffffffffffffffffffffffffffff838183161783525050505060405161472191906152f4565b6000604051808303816000865af19150503d806000811461475e576040519150601f19603f3d011682016040523d82523d6000602084013e614763565b606091505b5091509150818015614791575060008151148061479057508080602001905181019061478f91906149f6565b5b5b6147d0576040517f08c379a00000000000000000000000000000000000000000000000000000000081526004016147c7906155da565b60405180910390fd5b505050505050565b6040518060c00160405280600073ffffffffffffffffffffffffffffffffffffffff16815260200160008152602001600081526020016000815260200160008152602001600081525090565b60008135905061483381615874565b92915050565b60008151905061484881615874565b92915050565b60008135905061485d8161588b565b92915050565b6000815190506148728161588b565b92915050565b600081359050614887816158a2565b92915050565b60008151905061489c816158a2565b92915050565b600060c082840312156148b457600080fd5b6148be60c06156e7565b905060006148ce8482850161488d565b60008301525060206148e284828501614953565b60208301525060406148f684828501614953565b604083015250606061490a84828501614953565b606083015250608061491e84828501614953565b60808301525060a061493284828501614953565b60a08301525092915050565b60008135905061494d816158b9565b92915050565b600081519050614962816158b9565b92915050565b60006020828403121561497a57600080fd5b600061498884828501614824565b91505092915050565b6000602082840312156149a357600080fd5b60006149b184828501614839565b91505092915050565b600080604083850312156149cd57600080fd5b60006149db85828601614839565b92505060206149ec85828601614839565b9150509250929050565b600060208284031215614a0857600080fd5b6000614a1684828501614863565b91505092915050565b600060c08284031215614a3157600080fd5b6000614a3f848285016148a2565b91505092915050565b600060208284031215614a5a57600080fd5b6000614a688482850161493e565b91505092915050565b600060208284031215614a8357600080fd5b6000614a9184828501614953565b91505092915050565b60008060408385031215614aad57600080fd5b6000614abb8582860161493e565b9250506020614acc85828601614824565b9150509250929050565b600080600080600060a08688031215614aee57600080fd5b6000614afc8882890161493e565b9550506020614b0d88828901614824565b9450506040614b1e88828901614824565b9350506060614b2f8882890161493e565b9250506080614b408882890161493e565b9150509295509295909350565b60008060008060008060c08789031215614b6657600080fd5b6000614b7489828a0161493e565b9650506020614b8589828a01614824565b9550506040614b9689828a01614824565b9450506060614ba789828a0161493e565b9350506080614bb889828a0161493e565b92505060a0614bc989828a0161493e565b9150509295509295509295565b600080600080600080600060e0888a031215614bf157600080fd5b6000614bff8a828b0161493e565b9750506020614c108a828b01614824565b9650506040614c218a828b01614824565b9550506060614c328a828b0161493e565b9450506080614c438a828b0161493e565b93505060a0614c548a828b0161493e565b92505060c0614c658a828b0161493e565b91505092959891949750929550565b60008060008060808587031215614c8a57600080fd5b6000614c988782880161493e565b9450506020614ca987828801614824565b9350506040614cba8782880161493e565b9250506060614ccb8782880161493e565b91505092959194509250565b600080600080600060a08688031215614cef57600080fd5b6000614cfd8882890161493e565b9550506020614d0e88828901614824565b9450506040614d1f8882890161493e565b9350506060614d308882890161493e565b9250506080614d418882890161493e565b9150509295509295909350565b60008060008060808587031215614d6457600080fd5b6000614d728782880161493e565b9450506020614d8387828801614878565b9350506040614d948782880161493e565b9250506060614da58782880161484e565b91505092959194509250565b60008060408385031215614dc457600080fd5b6000614dd28582860161493e565b9250506020614de38582860161493e565b9150509250929050565b60008060408385031215614e0057600080fd5b6000614e0e85828601614953565b9250506020614e1f85828601614953565b9150509250929050565b60008060008060808587031215614e3f57600080fd5b6000614e4d8782880161493e565b9450506020614e5e8782880161493e565b9350506040614e6f8782880161493e565b9250506060614e808782880161484e565b91505092959194509250565b614e95816157a0565b82525050565b614ea481615746565b82525050565b6000614eb582615714565b614ebf818561572a565b9350614ecf818560208601615830565b80840191505092915050565b614ee4816157b2565b82525050565b614ef3816157d6565b82525050565b614f02816157fa565b82525050565b6000614f138261571f565b614f1d8185615735565b9350614f2d818560208601615830565b614f3681615863565b840191505092915050565b6000614f4e601f83615735565b91507f5472616e7366657248656c7065723a205452414e534645525f4641494c4544006000830152602082019050919050565b6000614f8e602683615735565b91507f4f776e61626c653a206e6577206f776e657220697320746865207a65726f206160008301527f64647265737300000000000000000000000000000000000000000000000000006020830152604082019050919050565b6000614ff4601b83615735565b91507f536166654d6174683a206164646974696f6e206f766572666c6f7700000000006000830152602082019050919050565b6000615034602183615735565b91507f4d646578526f757465723a20494e53554646494349454e545f425f414d4f554e60008301527f54000000000000000000000000000000000000000000000000000000000000006020830152604082019050919050565b600061509a602183615735565b91507f536166654d6174683a206d756c7469706c69636174696f6e206f766572666c6f60008301527f77000000000000000000000000000000000000000000000000000000000000006020830152604082019050919050565b6000615100602083615735565b91507f4f776e61626c653a2063616c6c6572206973206e6f7420746865206f776e65726000830152602082019050919050565b6000615140602183615735565b91507f4d646578526f757465723a20494e53554646494349454e545f415f414d4f554e60008301527f54000000000000000000000000000000000000000000000000000000000000006020830152604082019050919050565b60006151a6601283615735565b91507f77697468647261773a206e6f7420676f6f6400000000000000000000000000006000830152602082019050919050565b60006151e6602383615735565b91507f5472616e7366657248656c7065723a204554485f5452414e534645525f46414960008301527f4c454400000000000000000000000000000000000000000000000000000000006020830152604082019050919050565b600061524c602483615735565b91507f5472616e7366657248656c7065723a205452414e534645525f46524f4d5f464160008301527f494c4544000000000000000000000000000000000000000000000000000000006020830152604082019050919050565b60006152b2600983615735565b91507f77726f6e672070696400000000000000000000000000000000000000000000006000830152602082019050919050565b6152ee81615796565b82525050565b60006153008284614eaa565b915081905092915050565b60006020820190506153206000830184614e9b565b92915050565b600060208201905061533b6000830184614e8c565b92915050565b60006040820190506153566000830185614e8c565b61536360208301846152e5565b9392505050565b600060408201905061537f6000830185614e9b565b61538c6020830184614e9b565b9392505050565b60006060820190506153a86000830186614e9b565b6153b56020830185614e9b565b6153c260408301846152e5565b949350505050565b60006040820190506153df6000830185614e9b565b6153ec60208301846152e5565b9392505050565b60006020820190506154086000830184614edb565b92915050565b600060e082019050615423600083018a614edb565b61543060208301896152e5565b61543d60408301886152e5565b61544a60608301876152e5565b61545760808301866152e5565b61546460a08301856152e5565b61547160c08301846152e5565b98975050505050505050565b60006020820190506154926000830184614eea565b92915050565b600060208201905081810360008301526154b28184614f08565b905092915050565b600060208201905081810360008301526154d381614f41565b9050919050565b600060208201905081810360008301526154f381614f81565b9050919050565b6000602082019050818103600083015261551381614fe7565b9050919050565b6000602082019050818103600083015261553381615027565b9050919050565b600060208201905081810360008301526155538161508d565b9050919050565b60006020820190508181036000830152615573816150f3565b9050919050565b6000602082019050818103600083015261559381615133565b9050919050565b600060208201905081810360008301526155b381615199565b9050919050565b600060208201905081810360008301526155d3816151d9565b9050919050565b600060208201905081810360008301526155f38161523f565b9050919050565b60006020820190508181036000830152615613816152a5565b9050919050565b600060208201905061562f60008301846152e5565b92915050565b600060408201905061564a60008301856152e5565b6156576020830184614e8c565b9392505050565b600060408201905061567360008301856152e5565b6156806020830184614ef9565b9392505050565b600060408201905061569c60008301856152e5565b6156a960208301846152e5565b9392505050565b60006060820190506156c560008301866152e5565b6156d260208301856152e5565b6156df60408301846152e5565b949350505050565b6000604051905081810181811067ffffffffffffffff8211171561570a57600080fd5b8060405250919050565b600081519050919050565b600081519050919050565b600081905092915050565b600082825260208201905092915050565b600061575182615776565b9050919050565b60008115159050919050565b600061576f82615746565b9050919050565b600073ffffffffffffffffffffffffffffffffffffffff82169050919050565b6000819050919050565b60006157ab8261580c565b9050919050565b60006157bd826157c4565b9050919050565b60006157cf82615776565b9050919050565b60006157e1826157e8565b9050919050565b60006157f382615776565b9050919050565b600061580582615796565b9050919050565b60006158178261581e565b9050919050565b600061582982615776565b9050919050565b60005b8381101561584e578082015181840152602081019050615833565b8381111561585d576000848401525b50505050565b6000601f19601f8301169050919050565b61587d81615746565b811461588857600080fd5b50565b61589481615758565b811461589f57600080fd5b50565b6158ab81615764565b81146158b657600080fd5b50565b6158c281615796565b81146158cd57600080fd5b5056fea2646970667358221220db6b8e323e24d2ab874bb9d15194abf38db15b6d85c7922df9082911a4df4e5b64736f6c634300060c0033",
  "linkReferences": {},
  "deployedLinkReferences": {}
}